{
  "contractName": "Contest",
  "abi": [
    {
      "inputs": [],
      "stateMutability": "nonpayable",
      "type": "constructor"
    },
    {
      "inputs": [
        {
          "internalType": "uint256",
          "name": "",
          "type": "uint256"
        }
      ],
      "name": "contestants",
      "outputs": [
        {
          "internalType": "uint256",
          "name": "id",
          "type": "uint256"
        },
        {
          "internalType": "string",
          "name": "name",
          "type": "string"
        },
        {
          "internalType": "uint256",
          "name": "voteCount",
          "type": "uint256"
        },
        {
          "internalType": "string",
          "name": "description",
          "type": "string"
        }
      ],
      "stateMutability": "view",
      "type": "function"
    },
    {
      "inputs": [],
      "name": "contestantsCount",
      "outputs": [
        {
          "internalType": "uint256",
          "name": "",
          "type": "uint256"
        }
      ],
      "stateMutability": "view",
      "type": "function"
    },
    {
      "inputs": [],
      "name": "state",
      "outputs": [
        {
          "internalType": "enum Contest.PHASE",
          "name": "",
          "type": "uint8"
        }
      ],
      "stateMutability": "view",
      "type": "function"
    },
    {
      "inputs": [
        {
          "internalType": "address",
          "name": "",
          "type": "address"
        }
      ],
      "name": "voters",
      "outputs": [
        {
          "internalType": "bool",
          "name": "hasVoted",
          "type": "bool"
        },
        {
          "internalType": "uint256",
          "name": "vote",
          "type": "uint256"
        }
      ],
      "stateMutability": "view",
      "type": "function"
    },
    {
      "inputs": [
        {
          "internalType": "enum Contest.PHASE",
          "name": "x",
          "type": "uint8"
        }
      ],
      "name": "changeState",
      "outputs": [],
      "stateMutability": "nonpayable",
      "type": "function"
    },
    {
      "inputs": [
        {
          "internalType": "string",
          "name": "_name",
          "type": "string"
        },
        {
          "internalType": "string",
          "name": "_description",
          "type": "string"
        }
      ],
      "name": "addContestant",
      "outputs": [],
      "stateMutability": "nonpayable",
      "type": "function"
    },
    {
      "inputs": [
        {
          "internalType": "uint256",
          "name": "_contestantId",
          "type": "uint256"
        }
      ],
      "name": "vote",
      "outputs": [],
      "stateMutability": "nonpayable",
      "type": "function"
    }
  ],
  "bytecode": "0x608060405234801561001057600080fd5b50336000806101000a81548173ffffffffffffffffffffffffffffffffffffffff021916908373ffffffffffffffffffffffffffffffffffffffff1602179055506000600460006101000a81548160ff0219169083600281111561007757610076610081565b5b02179055506100b0565b7f4e487b7100000000000000000000000000000000000000000000000000000000600052602160045260246000fd5b610eed806100bf6000396000f3fe608060405234801561001057600080fd5b506004361061007d5760003560e01c8063c19d93fb1161005b578063c19d93fb146100eb578063c8fdc2ea14610109578063dfd50f5214610125578063ec63d1c8146101585761007d565b80630121b93f14610082578063268f11531461009e578063a3ec138d146100ba575b600080fd5b61009c600480360381019061009791906106c8565b610176565b005b6100b860048036038101906100b3919061071a565b6102fe565b005b6100d460048036038101906100cf91906107a5565b6103c2565b6040516100e29291906107fc565b60405180910390f35b6100f36103f3565b604051610100919061089c565b60405180910390f35b610123600480360381019061011e91906109fd565b610406565b005b61013f600480360381019061013a91906106c8565b610538565b60405161014f9493929190610af4565b60405180910390f35b610160610678565b60405161016d9190610b47565b60405180910390f35b600180600281111561018b5761018a610825565b5b600460009054906101000a900460ff1660028111156101ad576101ac610825565b5b146101b757600080fd5b600260003373ffffffffffffffffffffffffffffffffffffffff1673ffffffffffffffffffffffffffffffffffffffff16815260200190815260200160002060000160009054906101000a900460ff161561021157600080fd5b60008211801561022357506003548211155b61022c57600080fd5b60016000838152602001908152602001600020600201600081548092919061025390610b91565b91905055506001600260003373ffffffffffffffffffffffffffffffffffffffff1673ffffffffffffffffffffffffffffffffffffffff16815260200190815260200160002060000160006101000a81548160ff02191690831515021790555081600260003373ffffffffffffffffffffffffffffffffffffffff1673ffffffffffffffffffffffffffffffffffffffff168152602001908152602001600020600101819055505050565b60008054906101000a900473ffffffffffffffffffffffffffffffffffffffff1673ffffffffffffffffffffffffffffffffffffffff163373ffffffffffffffffffffffffffffffffffffffff161461035657600080fd5b600460009054906101000a900460ff16600281111561037857610377610825565b5b81600281111561038b5761038a610825565b5b1161039557600080fd5b80600460006101000a81548160ff021916908360028111156103ba576103b9610825565b5b021790555050565b60026020528060005260406000206000915090508060000160009054906101000a900460ff16908060010154905082565b600460009054906101000a900460ff1681565b60008054906101000a900473ffffffffffffffffffffffffffffffffffffffff1673ffffffffffffffffffffffffffffffffffffffff163373ffffffffffffffffffffffffffffffffffffffff161461045e57600080fd5b600080600281111561047357610472610825565b5b600460009054906101000a900460ff16600281111561049557610494610825565b5b1461049f57600080fd5b600360008154809291906104b290610b91565b919050555060405180608001604052806003548152602001848152602001600081526020018381525060016000600354815260200190815260200160002060008201518160000155602082015181600101908161050f9190610de5565b5060408201518160020155606082015181600301908161052f9190610de5565b50905050505050565b600160205280600052604060002060009150905080600001549080600101805461056190610c08565b80601f016020809104026020016040519081016040528092919081815260200182805461058d90610c08565b80156105da5780601f106105af576101008083540402835291602001916105da565b820191906000526020600020905b8154815290600101906020018083116105bd57829003601f168201915b5050505050908060020154908060030180546105f590610c08565b80601f016020809104026020016040519081016040528092919081815260200182805461062190610c08565b801561066e5780601f106106435761010080835404028352916020019161066e565b820191906000526020600020905b81548152906001019060200180831161065157829003601f168201915b5050505050905084565b60035481565b6000604051905090565b600080fd5b600080fd5b6000819050919050565b6106a581610692565b81146106b057600080fd5b50565b6000813590506106c28161069c565b92915050565b6000602082840312156106de576106dd610688565b5b60006106ec848285016106b3565b91505092915050565b6003811061070257600080fd5b50565b600081359050610714816106f5565b92915050565b6000602082840312156107305761072f610688565b5b600061073e84828501610705565b91505092915050565b600073ffffffffffffffffffffffffffffffffffffffff82169050919050565b600061077282610747565b9050919050565b61078281610767565b811461078d57600080fd5b50565b60008135905061079f81610779565b92915050565b6000602082840312156107bb576107ba610688565b5b60006107c984828501610790565b91505092915050565b60008115159050919050565b6107e7816107d2565b82525050565b6107f681610692565b82525050565b600060408201905061081160008301856107de565b61081e60208301846107ed565b9392505050565b7f4e487b7100000000000000000000000000000000000000000000000000000000600052602160045260246000fd5b6003811061086557610864610825565b5b50565b600081905061087682610854565b919050565b600061088682610868565b9050919050565b6108968161087b565b82525050565b60006020820190506108b1600083018461088d565b92915050565b600080fd5b600080fd5b6000601f19601f8301169050919050565b7f4e487b7100000000000000000000000000000000000000000000000000000000600052604160045260246000fd5b61090a826108c1565b810181811067ffffffffffffffff82111715610929576109286108d2565b5b80604052505050565b600061093c61067e565b90506109488282610901565b919050565b600067ffffffffffffffff821115610968576109676108d2565b5b610971826108c1565b9050602081019050919050565b82818337600083830152505050565b60006109a061099b8461094d565b610932565b9050828152602081018484840111156109bc576109bb6108bc565b5b6109c784828561097e565b509392505050565b600082601f8301126109e4576109e36108b7565b5b81356109f484826020860161098d565b91505092915050565b60008060408385031215610a1457610a13610688565b5b600083013567ffffffffffffffff811115610a3257610a3161068d565b5b610a3e858286016109cf565b925050602083013567ffffffffffffffff811115610a5f57610a5e61068d565b5b610a6b858286016109cf565b9150509250929050565b600081519050919050565b600082825260208201905092915050565b60005b83811015610aaf578082015181840152602081019050610a94565b60008484015250505050565b6000610ac682610a75565b610ad08185610a80565b9350610ae0818560208601610a91565b610ae9816108c1565b840191505092915050565b6000608082019050610b0960008301876107ed565b8181036020830152610b1b8186610abb565b9050610b2a60408301856107ed565b8181036060830152610b3c8184610abb565b905095945050505050565b6000602082019050610b5c60008301846107ed565b92915050565b7f4e487b7100000000000000000000000000000000000000000000000000000000600052601160045260246000fd5b6000610b9c82610692565b91507fffffffffffffffffffffffffffffffffffffffffffffffffffffffffffffffff8203610bce57610bcd610b62565b5b600182019050919050565b7f4e487b7100000000000000000000000000000000000000000000000000000000600052602260045260246000fd5b60006002820490506001821680610c2057607f821691505b602082108103610c3357610c32610bd9565b5b50919050565b60008190508160005260206000209050919050565b60006020601f8301049050919050565b600082821b905092915050565b600060088302610c9b7fffffffffffffffffffffffffffffffffffffffffffffffffffffffffffffffff82610c5e565b610ca58683610c5e565b95508019841693508086168417925050509392505050565b6000819050919050565b6000610ce2610cdd610cd884610692565b610cbd565b610692565b9050919050565b6000819050919050565b610cfc83610cc7565b610d10610d0882610ce9565b848454610c6b565b825550505050565b600090565b610d25610d18565b610d30818484610cf3565b505050565b5b81811015610d5457610d49600082610d1d565b600181019050610d36565b5050565b601f821115610d9957610d6a81610c39565b610d7384610c4e565b81016020851015610d82578190505b610d96610d8e85610c4e565b830182610d35565b50505b505050565b600082821c905092915050565b6000610dbc60001984600802610d9e565b1980831691505092915050565b6000610dd58383610dab565b9150826002028217905092915050565b610dee82610a75565b67ffffffffffffffff811115610e0757610e066108d2565b5b610e118254610c08565b610e1c828285610d58565b600060209050601f831160018114610e4f5760008415610e3d578287015190505b610e478582610dc9565b865550610eaf565b601f198416610e5d86610c39565b60005b82811015610e8557848901518255600182019150602085019450602081019050610e60565b86831015610ea25784890151610e9e601f891682610dab565b8355505b6001600288020188555050505b50505050505056fea2646970667358221220b355957e645511672b0bee5ca75ddefc7d0b821c44ccdc60b2bc3544a85725ba64736f6c63430008130033",
  "immutableReferences": {},
  "source": "pragma solidity >= 0.4.22 < 0.9.0;\r\n// SPDX-License-Identifier: MIT\r\ncontract Contest{\r\n\t\r\n\tstruct Contestant{\r\n\t\tuint id;\r\n\t\tstring name;\r\n\t\tuint voteCount;\r\n\t\tstring description;\r\n\t}\r\n\r\n\tstruct Voter{\r\n\t\tbool hasVoted;\r\n\t\tuint vote;\r\n\t}\r\n\r\n\taddress admin;\r\n\tmapping(uint => Contestant) public contestants; \r\n\r\n    mapping(address => Voter) public voters;\r\n\tuint public contestantsCount;\r\n\r\n\tenum PHASE{reg, voting , done}\r\n\tPHASE public state;\r\n\r\n\tmodifier onlyAdmin(){\r\n\t\trequire(msg.sender==admin);\r\n\t\t_;\r\n\t}\r\n\t\r\n\tmodifier validState(PHASE x){\r\n\t    require(state==x);\r\n\t    _;\r\n\t}\r\n\r\n\tconstructor() public{\r\n\t\tadmin=msg.sender;\r\n        state=PHASE.reg;\r\n\t\t// counter = 0;\r\n\r\n\t}\r\n\r\n    function changeState(PHASE x) onlyAdmin public{\r\n\t\trequire(x > state);\r\n        state = x;\r\n    }\r\n\r\n\tfunction addContestant(string memory _name ,  string memory _description) public onlyAdmin validState(PHASE.reg){\r\n\t\tcontestantsCount++;\r\n\t\tcontestants[contestantsCount]=Contestant(contestantsCount,_name,0,_description);\r\n\t}\r\n\r\n\r\n\tfunction vote(uint _contestantId) public validState(PHASE.voting){\r\n    \r\n\t\trequire(!voters[msg.sender].hasVoted);\r\n        require(_contestantId > 0 && _contestantId<=contestantsCount);\r\n\t\tcontestants[_contestantId].voteCount++;\r\n\t\tvoters[msg.sender].hasVoted=true;\r\n\t\tvoters[msg.sender].vote=_contestantId;\r\n\t}\r\n}",
  "sourcePath": "F:\\BlockChain_Voting\\Smart_Contract\\contracts\\Voting.sol",
  "compiler": {
    "name": "solc",
    "version": "0.8.19+commit.7dd6d404.Emscripten.clang"
  },
  "schemaVersion": "3.4.13",
  "updatedAt": "2023-03-03T18:45:31.410Z",
  "devdoc": {
    "kind": "dev",
    "methods": {},
    "version": 1
  },
  "userdoc": {
    "kind": "user",
    "methods": {},
    "version": 1
  }
}